{
  "_format": "hh-sol-artifact-1",
  "contractName": "NFT",
  "sourceName": "src/backend/contracts/NFT.sol",
  "abi": [
    {
      "inputs": [],
      "stateMutability": "nonpayable",
      "type": "constructor"
    },
    {
      "anonymous": false,
      "inputs": [
        {
          "indexed": true,
          "internalType": "address",
          "name": "owner",
          "type": "address"
        },
        {
          "indexed": true,
          "internalType": "address",
          "name": "approved",
          "type": "address"
        },
        {
          "indexed": true,
          "internalType": "uint256",
          "name": "tokenId",
          "type": "uint256"
        }
      ],
      "name": "Approval",
      "type": "event"
    },
    {
      "anonymous": false,
      "inputs": [
        {
          "indexed": true,
          "internalType": "address",
          "name": "owner",
          "type": "address"
        },
        {
          "indexed": true,
          "internalType": "address",
          "name": "operator",
          "type": "address"
        },
        {
          "indexed": false,
          "internalType": "bool",
          "name": "approved",
          "type": "bool"
        }
      ],
      "name": "ApprovalForAll",
      "type": "event"
    },
    {
      "anonymous": false,
      "inputs": [
        {
          "indexed": true,
          "internalType": "address",
          "name": "from",
          "type": "address"
        },
        {
          "indexed": true,
          "internalType": "address",
          "name": "to",
          "type": "address"
        },
        {
          "indexed": true,
          "internalType": "uint256",
          "name": "tokenId",
          "type": "uint256"
        }
      ],
      "name": "Transfer",
      "type": "event"
    },
    {
      "inputs": [
        {
          "internalType": "address",
          "name": "to",
          "type": "address"
        },
        {
          "internalType": "uint256",
          "name": "tokenId",
          "type": "uint256"
        }
      ],
      "name": "approve",
      "outputs": [],
      "stateMutability": "nonpayable",
      "type": "function"
    },
    {
      "inputs": [
        {
          "internalType": "address",
          "name": "owner",
          "type": "address"
        }
      ],
      "name": "balanceOf",
      "outputs": [
        {
          "internalType": "uint256",
          "name": "",
          "type": "uint256"
        }
      ],
      "stateMutability": "view",
      "type": "function"
    },
    {
      "inputs": [
        {
          "internalType": "uint256",
          "name": "tokenId",
          "type": "uint256"
        },
        {
          "internalType": "uint256",
          "name": "indx",
          "type": "uint256"
        }
      ],
      "name": "burn",
      "outputs": [],
      "stateMutability": "nonpayable",
      "type": "function"
    },
    {
      "inputs": [
        {
          "internalType": "uint256",
          "name": "itemNumber",
          "type": "uint256"
        },
        {
          "internalType": "string",
          "name": "_uri",
          "type": "string"
        }
      ],
      "name": "claimWarranty",
      "outputs": [
        {
          "internalType": "uint256",
          "name": "",
          "type": "uint256"
        }
      ],
      "stateMutability": "nonpayable",
      "type": "function"
    },
    {
      "inputs": [
        {
          "internalType": "uint256",
          "name": "tokenId",
          "type": "uint256"
        },
        {
          "internalType": "uint256",
          "name": "indx",
          "type": "uint256"
        }
      ],
      "name": "completeBurn",
      "outputs": [],
      "stateMutability": "nonpayable",
      "type": "function"
    },
    {
      "inputs": [
        {
          "internalType": "uint256",
          "name": "tokenId",
          "type": "uint256"
        }
      ],
      "name": "getApproved",
      "outputs": [
        {
          "internalType": "address",
          "name": "",
          "type": "address"
        }
      ],
      "stateMutability": "view",
      "type": "function"
    },
    {
      "inputs": [
        {
          "internalType": "address",
          "name": "owner",
          "type": "address"
        },
        {
          "internalType": "address",
          "name": "operator",
          "type": "address"
        }
      ],
      "name": "isApprovedForAll",
      "outputs": [
        {
          "internalType": "bool",
          "name": "",
          "type": "bool"
        }
      ],
      "stateMutability": "view",
      "type": "function"
    },
    {
      "inputs": [],
      "name": "itemCount",
      "outputs": [
        {
          "internalType": "uint256",
          "name": "",
          "type": "uint256"
        }
      ],
      "stateMutability": "view",
      "type": "function"
    },
    {
      "inputs": [
        {
          "internalType": "uint256",
          "name": "",
          "type": "uint256"
        }
      ],
      "name": "items",
      "outputs": [
        {
          "internalType": "uint256",
          "name": "tokenId",
          "type": "uint256"
        },
        {
          "internalType": "string",
          "name": "serial",
          "type": "string"
        },
        {
          "internalType": "string",
          "name": "tokenUri",
          "type": "string"
        },
        {
          "internalType": "address",
          "name": "owner",
          "type": "address"
        },
        {
          "internalType": "address",
          "name": "current_owner",
          "type": "address"
        },
        {
          "internalType": "address",
          "name": "valid_owner",
          "type": "address"
        },
        {
          "internalType": "bool",
          "name": "redeemed",
          "type": "bool"
        }
      ],
      "stateMutability": "view",
      "type": "function"
    },
    {
      "inputs": [
        {
          "internalType": "string",
          "name": "serial",
          "type": "string"
        },
        {
          "internalType": "string",
          "name": "_tokenUri",
          "type": "string"
        },
        {
          "internalType": "address",
          "name": "_validOwner",
          "type": "address"
        }
      ],
      "name": "makeItem",
      "outputs": [],
      "stateMutability": "nonpayable",
      "type": "function"
    },
    {
      "inputs": [],
      "name": "name",
      "outputs": [
        {
          "internalType": "string",
          "name": "",
          "type": "string"
        }
      ],
      "stateMutability": "view",
      "type": "function"
    },
    {
      "inputs": [
        {
          "internalType": "uint256",
          "name": "tokenId",
          "type": "uint256"
        }
      ],
      "name": "ownerOf",
      "outputs": [
        {
          "internalType": "address",
          "name": "",
          "type": "address"
        }
      ],
      "stateMutability": "view",
      "type": "function"
    },
    {
      "inputs": [
        {
          "internalType": "address",
          "name": "from",
          "type": "address"
        },
        {
          "internalType": "address",
          "name": "to",
          "type": "address"
        },
        {
          "internalType": "uint256",
          "name": "tokenId",
          "type": "uint256"
        }
      ],
      "name": "safeTransferFrom",
      "outputs": [],
      "stateMutability": "nonpayable",
      "type": "function"
    },
    {
      "inputs": [
        {
          "internalType": "address",
          "name": "from",
          "type": "address"
        },
        {
          "internalType": "address",
          "name": "to",
          "type": "address"
        },
        {
          "internalType": "uint256",
          "name": "tokenId",
          "type": "uint256"
        },
        {
          "internalType": "bytes",
          "name": "_data",
          "type": "bytes"
        }
      ],
      "name": "safeTransferFrom",
      "outputs": [],
      "stateMutability": "nonpayable",
      "type": "function"
    },
    {
      "inputs": [
        {
          "internalType": "address",
          "name": "operator",
          "type": "address"
        },
        {
          "internalType": "bool",
          "name": "approved",
          "type": "bool"
        }
      ],
      "name": "setApprovalForAll",
      "outputs": [],
      "stateMutability": "nonpayable",
      "type": "function"
    },
    {
      "inputs": [
        {
          "internalType": "bytes4",
          "name": "interfaceId",
          "type": "bytes4"
        }
      ],
      "name": "supportsInterface",
      "outputs": [
        {
          "internalType": "bool",
          "name": "",
          "type": "bool"
        }
      ],
      "stateMutability": "view",
      "type": "function"
    },
    {
      "inputs": [],
      "name": "symbol",
      "outputs": [
        {
          "internalType": "string",
          "name": "",
          "type": "string"
        }
      ],
      "stateMutability": "view",
      "type": "function"
    },
    {
      "inputs": [],
      "name": "tokenCount",
      "outputs": [
        {
          "internalType": "uint256",
          "name": "",
          "type": "uint256"
        }
      ],
      "stateMutability": "view",
      "type": "function"
    },
    {
      "inputs": [
        {
          "internalType": "uint256",
          "name": "tokenId",
          "type": "uint256"
        }
      ],
      "name": "tokenURI",
      "outputs": [
        {
          "internalType": "string",
          "name": "",
          "type": "string"
        }
      ],
      "stateMutability": "view",
      "type": "function"
    },
    {
      "inputs": [
        {
          "internalType": "address",
          "name": "from",
          "type": "address"
        },
        {
          "internalType": "address",
          "name": "to",
          "type": "address"
        },
        {
          "internalType": "uint256",
          "name": "tokenId",
          "type": "uint256"
        }
      ],
      "name": "transferFrom",
      "outputs": [],
      "stateMutability": "nonpayable",
      "type": "function"
    },
    {
      "inputs": [
        {
          "internalType": "uint256",
          "name": "itemNumber",
          "type": "uint256"
        },
        {
          "internalType": "string",
          "name": "newUri",
          "type": "string"
        }
      ],
      "name": "updateUri",
      "outputs": [],
      "stateMutability": "nonpayable",
      "type": "function"
    },
    {
      "inputs": [
        {
          "internalType": "uint256",
          "name": "itemNumber",
          "type": "uint256"
        },
        {
          "internalType": "address",
          "name": "newOwner",
          "type": "address"
        }
      ],
      "name": "updateValidOwner",
      "outputs": [],
      "stateMutability": "nonpayable",
      "type": "function"
    }
  ],
  "bytecode": "0x60806040523480156200001157600080fd5b506040518060400160405280600c81526020017f57617272616e7479204e465400000000000000000000000000000000000000008152506040518060400160405280600381526020017f5741520000000000000000000000000000000000000000000000000000000000815250816000908051906020019062000096929190620000b8565b508060019080519060200190620000af929190620000b8565b505050620001cd565b828054620000c69062000168565b90600052602060002090601f016020900481019282620000ea576000855562000136565b82601f106200010557805160ff191683800117855562000136565b8280016001018555821562000136579182015b828111156200013557825182559160200191906001019062000118565b5b50905062000145919062000149565b5090565b5b80821115620001645760008160009055506001016200014a565b5090565b600060028204905060018216806200018157607f821691505b602082108114156200019857620001976200019e565b5b50919050565b7f4e487b7100000000000000000000000000000000000000000000000000000000600052602260045260246000fd5b613ab280620001dd6000396000f3fe608060405234801561001057600080fd5b50600436106101425760003560e01c806370a08231116100b8578063b390c0ab1161007c578063b390c0ab14610373578063b88d4fde1461038f578063bfb231d2146103ab578063c87b56dd146103e1578063e985e9c514610411578063ff1858da1461044157610142565b806370a08231146102cf57806380c21938146102ff57806395d89b411461031b5780639f181b5e14610339578063a22cb4651461035757610142565b806315538a231161010a57806315538a23146101fd57806323b872dd1461022d57806342842e0e146102495780636352211e146102655780636bfb0d01146102955780636cbb38d8146102b357610142565b806301ffc9a714610147578063057512041461017757806306fdde0314610193578063081812fc146101b1578063095ea7b3146101e1575b600080fd5b610161600480360381019061015c9190612853565b61045d565b60405161016e9190612e0d565b60405180910390f35b610191600480360381019061018c9190612989565b61053f565b005b61019b61056e565b6040516101a89190612e28565b60405180910390f35b6101cb60048036038101906101c69190612924565b610600565b6040516101d89190612da6565b60405180910390f35b6101fb60048036038101906101f69190612817565b610685565b005b61021760048036038101906102129190612989565b61079d565b60405161022491906130aa565b60405180910390f35b61024760048036038101906102429190612711565b610925565b005b610263600480360381019061025e9190612711565b610985565b005b61027f600480360381019061027a9190612924565b6109a5565b60405161028c9190612da6565b60405180910390f35b61029d610a57565b6040516102aa91906130aa565b60405180910390f35b6102cd60048036038101906102c8919061294d565b610a5d565b005b6102e960048036038101906102e491906126ac565b610ab6565b6040516102f691906130aa565b60405180910390f35b610319600480360381019061031491906129dd565b610b6e565b005b610323610d3c565b6040516103309190612e28565b60405180910390f35b610341610dce565b60405161034e91906130aa565b60405180910390f35b610371600480360381019061036c91906127db565b610dd4565b005b61038d600480360381019061038891906129dd565b610dea565b005b6103a960048036038101906103a49190612760565b610ef1565b005b6103c560048036038101906103c09190612924565b610f53565b6040516103d897969594939291906130c5565b60405180910390f35b6103fb60048036038101906103f69190612924565b611112565b6040516104089190612e28565b60405180910390f35b61042b600480360381019061042691906126d5565b611264565b6040516104389190612e0d565b60405180910390f35b61045b600480360381019061045691906128a5565b6112f8565b005b60007f80ac58cd000000000000000000000000000000000000000000000000000000007bffffffffffffffffffffffffffffffffffffffffffffffffffffffff1916827bffffffffffffffffffffffffffffffffffffffffffffffffffffffff1916148061052857507f5b5e139f000000000000000000000000000000000000000000000000000000007bffffffffffffffffffffffffffffffffffffffffffffffffffffffff1916827bffffffffffffffffffffffffffffffffffffffffffffffffffffffff1916145b806105385750610537826114df565b5b9050919050565b80600960008481526020019081526020016000206002019080519060200190610569929190612490565b505050565b60606000805461057d9061337d565b80601f01602080910402602001604051908101604052809291908181526020018280546105a99061337d565b80156105f65780601f106105cb576101008083540402835291602001916105f6565b820191906000526020600020905b8154815290600101906020018083116105d957829003601f168201915b5050505050905090565b600061060b82611549565b61064a576040517f08c379a000000000000000000000000000000000000000000000000000000000815260040161064190612fea565b60405180910390fd5b6004600083815260200190815260200160002060009054906101000a900473ffffffffffffffffffffffffffffffffffffffff169050919050565b6000610690826109a5565b90508073ffffffffffffffffffffffffffffffffffffffff168373ffffffffffffffffffffffffffffffffffffffff161415610701576040517f08c379a00000000000000000000000000000000000000000000000000000000081526004016106f89061304a565b60405180910390fd5b8073ffffffffffffffffffffffffffffffffffffffff166107206115b5565b73ffffffffffffffffffffffffffffffffffffffff16148061074f575061074e816107496115b5565b611264565b5b61078e576040517f08c379a000000000000000000000000000000000000000000000000000000000815260040161078590612f2a565b60405180910390fd5b61079883836115bd565b505050565b60003373ffffffffffffffffffffffffffffffffffffffff166009600085815260200190815260200160002060050160009054906101000a900473ffffffffffffffffffffffffffffffffffffffff1673ffffffffffffffffffffffffffffffffffffffff1614156108e4576007600081548092919061081c906133e0565b919050555061082d33600754611676565b61083960075483611694565b6007546009600085815260200190815260200160002060000181905550336009600085815260200190815260200160002060040160006101000a81548173ffffffffffffffffffffffffffffffffffffffff021916908373ffffffffffffffffffffffffffffffffffffffff16021790555060016009600085815260200190815260200160002060050160146101000a81548160ff021916908315150217905550600754905061091f565b6040517f08c379a000000000000000000000000000000000000000000000000000000000815260040161091690612f0a565b60405180910390fd5b92915050565b6109366109306115b5565b82611708565b610975576040517f08c379a000000000000000000000000000000000000000000000000000000000815260040161096c9061308a565b60405180910390fd5b6109808383836117e6565b505050565b6109a083838360405180602001604052806000815250610ef1565b505050565b6000806002600084815260200190815260200160002060009054906101000a900473ffffffffffffffffffffffffffffffffffffffff169050600073ffffffffffffffffffffffffffffffffffffffff168173ffffffffffffffffffffffffffffffffffffffff161415610a4e576040517f08c379a0000000000000000000000000000000000000000000000000000000008152600401610a4590612f6a565b60405180910390fd5b80915050919050565b60085481565b806009600084815260200190815260200160002060050160006101000a81548173ffffffffffffffffffffffffffffffffffffffff021916908373ffffffffffffffffffffffffffffffffffffffff1602179055505050565b60008073ffffffffffffffffffffffffffffffffffffffff168273ffffffffffffffffffffffffffffffffffffffff161415610b27576040517f08c379a0000000000000000000000000000000000000000000000000000000008152600401610b1e90612f4a565b60405180910390fd5b600360008373ffffffffffffffffffffffffffffffffffffffff1673ffffffffffffffffffffffffffffffffffffffff168152602001908152602001600020549050919050565b3373ffffffffffffffffffffffffffffffffffffffff166009600083815260200190815260200160002060040160009054906101000a900473ffffffffffffffffffffffffffffffffffffffff1673ffffffffffffffffffffffffffffffffffffffff1614610c12576040517f08c379a0000000000000000000000000000000000000000000000000000000008152600401610c099061302a565b60405180910390fd5b60006009600083815260200190815260200160002060040160006101000a81548173ffffffffffffffffffffffffffffffffffffffff021916908373ffffffffffffffffffffffffffffffffffffffff160217905550610c7182611a4d565b60096000828152602001908152602001600020600080820160009055600182016000610c9d9190612516565b600282016000610cad9190612516565b6003820160006101000a81549073ffffffffffffffffffffffffffffffffffffffff02191690556004820160006101000a81549073ffffffffffffffffffffffffffffffffffffffff02191690556005820160006101000a81549073ffffffffffffffffffffffffffffffffffffffff02191690556005820160146101000a81549060ff021916905550505050565b606060018054610d4b9061337d565b80601f0160208091040260200160405190810160405280929190818152602001828054610d779061337d565b8015610dc45780601f10610d9957610100808354040283529160200191610dc4565b820191906000526020600020905b815481529060010190602001808311610da757829003601f168201915b5050505050905090565b60075481565b610de6610ddf6115b5565b8383611aa0565b5050565b3373ffffffffffffffffffffffffffffffffffffffff166009600083815260200190815260200160002060040160009054906101000a900473ffffffffffffffffffffffffffffffffffffffff1673ffffffffffffffffffffffffffffffffffffffff1614610e8e576040517f08c379a0000000000000000000000000000000000000000000000000000000008152600401610e859061302a565b60405180910390fd5b60006009600083815260200190815260200160002060040160006101000a81548173ffffffffffffffffffffffffffffffffffffffff021916908373ffffffffffffffffffffffffffffffffffffffff160217905550610eed82611a4d565b5050565b610f02610efc6115b5565b83611708565b610f41576040517f08c379a0000000000000000000000000000000000000000000000000000000008152600401610f389061308a565b60405180910390fd5b610f4d84848484611c0d565b50505050565b6009602052806000526040600020600091509050806000015490806001018054610f7c9061337d565b80601f0160208091040260200160405190810160405280929190818152602001828054610fa89061337d565b8015610ff55780601f10610fca57610100808354040283529160200191610ff5565b820191906000526020600020905b815481529060010190602001808311610fd857829003601f168201915b50505050509080600201805461100a9061337d565b80601f01602080910402602001604051908101604052809291908181526020018280546110369061337d565b80156110835780601f1061105857610100808354040283529160200191611083565b820191906000526020600020905b81548152906001019060200180831161106657829003601f168201915b5050505050908060030160009054906101000a900473ffffffffffffffffffffffffffffffffffffffff16908060040160009054906101000a900473ffffffffffffffffffffffffffffffffffffffff16908060050160009054906101000a900473ffffffffffffffffffffffffffffffffffffffff16908060050160149054906101000a900460ff16905087565b606061111d82611549565b61115c576040517f08c379a000000000000000000000000000000000000000000000000000000000815260040161115390612fca565b60405180910390fd5b600060066000848152602001908152602001600020805461117c9061337d565b80601f01602080910402602001604051908101604052809291908181526020018280546111a89061337d565b80156111f55780601f106111ca576101008083540402835291602001916111f5565b820191906000526020600020905b8154815290600101906020018083116111d857829003601f168201915b505050505090506000611206611c69565b905060008151141561121c57819250505061125f565b600082511115611251578082604051602001611239929190612d82565b6040516020818303038152906040529250505061125f565b61125a84611c80565b925050505b919050565b6000600560008473ffffffffffffffffffffffffffffffffffffffff1673ffffffffffffffffffffffffffffffffffffffff16815260200190815260200160002060008373ffffffffffffffffffffffffffffffffffffffff1673ffffffffffffffffffffffffffffffffffffffff16815260200190815260200160002060009054906101000a900460ff16905092915050565b6008600081548092919061130b906133e0565b91905055506040518060e00160405280600081526020018481526020018381526020013373ffffffffffffffffffffffffffffffffffffffff1681526020013373ffffffffffffffffffffffffffffffffffffffff1681526020018273ffffffffffffffffffffffffffffffffffffffff168152602001600015158152506009600060085481526020019081526020016000206000820151816000015560208201518160010190805190602001906113c4929190612490565b5060408201518160020190805190602001906113e1929190612490565b5060608201518160030160006101000a81548173ffffffffffffffffffffffffffffffffffffffff021916908373ffffffffffffffffffffffffffffffffffffffff16021790555060808201518160040160006101000a81548173ffffffffffffffffffffffffffffffffffffffff021916908373ffffffffffffffffffffffffffffffffffffffff16021790555060a08201518160050160006101000a81548173ffffffffffffffffffffffffffffffffffffffff021916908373ffffffffffffffffffffffffffffffffffffffff16021790555060c08201518160050160146101000a81548160ff021916908315150217905550905050505050565b60007f01ffc9a7000000000000000000000000000000000000000000000000000000007bffffffffffffffffffffffffffffffffffffffffffffffffffffffff1916827bffffffffffffffffffffffffffffffffffffffffffffffffffffffff1916149050919050565b60008073ffffffffffffffffffffffffffffffffffffffff166002600084815260200190815260200160002060009054906101000a900473ffffffffffffffffffffffffffffffffffffffff1673ffffffffffffffffffffffffffffffffffffffff1614159050919050565b600033905090565b816004600083815260200190815260200160002060006101000a81548173ffffffffffffffffffffffffffffffffffffffff021916908373ffffffffffffffffffffffffffffffffffffffff160217905550808273ffffffffffffffffffffffffffffffffffffffff16611630836109a5565b73ffffffffffffffffffffffffffffffffffffffff167f8c5be1e5ebec7d5bd14f71427d1e84f3dd0314c0f7b2291e5b200ac8c7c3b92560405160405180910390a45050565b611690828260405180602001604052806000815250611d27565b5050565b61169d82611549565b6116dc576040517f08c379a00000000000000000000000000000000000000000000000000000000081526004016116d390612f8a565b60405180910390fd5b80600660008481526020019081526020016000209080519060200190611703929190612490565b505050565b600061171382611549565b611752576040517f08c379a000000000000000000000000000000000000000000000000000000000815260040161174990612eea565b60405180910390fd5b600061175d836109a5565b90508073ffffffffffffffffffffffffffffffffffffffff168473ffffffffffffffffffffffffffffffffffffffff1614806117cc57508373ffffffffffffffffffffffffffffffffffffffff166117b484610600565b73ffffffffffffffffffffffffffffffffffffffff16145b806117dd57506117dc8185611264565b5b91505092915050565b8273ffffffffffffffffffffffffffffffffffffffff16611806826109a5565b73ffffffffffffffffffffffffffffffffffffffff161461185c576040517f08c379a000000000000000000000000000000000000000000000000000000000815260040161185390612e6a565b60405180910390fd5b600073ffffffffffffffffffffffffffffffffffffffff168273ffffffffffffffffffffffffffffffffffffffff1614156118cc576040517f08c379a00000000000000000000000000000000000000000000000000000000081526004016118c390612eaa565b60405180910390fd5b6118d7838383611d82565b6118e26000826115bd565b6001600360008573ffffffffffffffffffffffffffffffffffffffff1673ffffffffffffffffffffffffffffffffffffffff16815260200190815260200160002060008282546119329190613293565b925050819055506001600360008473ffffffffffffffffffffffffffffffffffffffff1673ffffffffffffffffffffffffffffffffffffffff1681526020019081526020016000206000828254611989919061320c565b92505081905550816002600083815260200190815260200160002060006101000a81548173ffffffffffffffffffffffffffffffffffffffff021916908373ffffffffffffffffffffffffffffffffffffffff160217905550808273ffffffffffffffffffffffffffffffffffffffff168473ffffffffffffffffffffffffffffffffffffffff167fddf252ad1be2c89b69c2b068fc378daa952ba7f163c4a11628f55a4df523b3ef60405160405180910390a4611a48838383611e2d565b505050565b611a5681611e32565b6000600660008381526020019081526020016000208054611a769061337d565b905014611a9d57600660008281526020019081526020016000206000611a9c9190612516565b5b50565b8173ffffffffffffffffffffffffffffffffffffffff168373ffffffffffffffffffffffffffffffffffffffff161415611b0f576040517f08c379a0000000000000000000000000000000000000000000000000000000008152600401611b0690612eca565b60405180910390fd5b80600560008573ffffffffffffffffffffffffffffffffffffffff1673ffffffffffffffffffffffffffffffffffffffff16815260200190815260200160002060008473ffffffffffffffffffffffffffffffffffffffff1673ffffffffffffffffffffffffffffffffffffffff16815260200190815260200160002060006101000a81548160ff0219169083151502179055508173ffffffffffffffffffffffffffffffffffffffff168373ffffffffffffffffffffffffffffffffffffffff167f17307eab39ab6107e8899845ad3d59bd9653f200f220920489ca2b5937696c3183604051611c009190612e0d565b60405180910390a3505050565b611c188484846117e6565b611c2484848484611f4f565b611c63576040517f08c379a0000000000000000000000000000000000000000000000000000000008152600401611c5a90612e4a565b60405180910390fd5b50505050565b606060405180602001604052806000815250905090565b6060611c8b82611549565b611cca576040517f08c379a0000000000000000000000000000000000000000000000000000000008152600401611cc19061300a565b60405180910390fd5b6000611cd4611c69565b90506000815111611cf45760405180602001604052806000815250611d1f565b80611cfe846120e6565b604051602001611d0f929190612d82565b6040516020818303038152906040525b915050919050565b611d318383612293565b611d3e6000848484611f4f565b611d7d576040517f08c379a0000000000000000000000000000000000000000000000000000000008152600401611d7490612e4a565b60405180910390fd5b505050565b600073ffffffffffffffffffffffffffffffffffffffff168373ffffffffffffffffffffffffffffffffffffffff161480611de95750600073ffffffffffffffffffffffffffffffffffffffff168273ffffffffffffffffffffffffffffffffffffffff16145b611e28576040517f08c379a0000000000000000000000000000000000000000000000000000000008152600401611e1f9061306a565b60405180910390fd5b505050565b505050565b6000611e3d826109a5565b9050611e4b81600084611d82565b611e566000836115bd565b6001600360008373ffffffffffffffffffffffffffffffffffffffff1673ffffffffffffffffffffffffffffffffffffffff1681526020019081526020016000206000828254611ea69190613293565b925050819055506002600083815260200190815260200160002060006101000a81549073ffffffffffffffffffffffffffffffffffffffff021916905581600073ffffffffffffffffffffffffffffffffffffffff168273ffffffffffffffffffffffffffffffffffffffff167fddf252ad1be2c89b69c2b068fc378daa952ba7f163c4a11628f55a4df523b3ef60405160405180910390a4611f4b81600084611e2d565b5050565b6000611f708473ffffffffffffffffffffffffffffffffffffffff1661246d565b156120d9578373ffffffffffffffffffffffffffffffffffffffff1663150b7a02611f996115b5565b8786866040518563ffffffff1660e01b8152600401611fbb9493929190612dc1565b602060405180830381600087803b158015611fd557600080fd5b505af192505050801561200657506040513d601f19601f82011682018060405250810190612003919061287c565b60015b612089573d8060008114612036576040519150601f19603f3d011682016040523d82523d6000602084013e61203b565b606091505b50600081511415612081576040517f08c379a000000000000000000000000000000000000000000000000000000000815260040161207890612e4a565b60405180910390fd5b805181602001fd5b63150b7a0260e01b7bffffffffffffffffffffffffffffffffffffffffffffffffffffffff1916817bffffffffffffffffffffffffffffffffffffffffffffffffffffffff1916149150506120de565b600190505b949350505050565b6060600082141561212e576040518060400160405280600181526020017f3000000000000000000000000000000000000000000000000000000000000000815250905061228e565b600082905060005b60008214612160578080612149906133e0565b915050600a826121599190613262565b9150612136565b60008167ffffffffffffffff8111156121a2577f4e487b7100000000000000000000000000000000000000000000000000000000600052604160045260246000fd5b6040519080825280601f01601f1916602001820160405280156121d45781602001600182028036833780820191505090505b5090505b60008514612287576001826121ed9190613293565b9150600a856121fc9190613429565b6030612208919061320c565b60f81b818381518110612244577f4e487b7100000000000000000000000000000000000000000000000000000000600052603260045260246000fd5b60200101907effffffffffffffffffffffffffffffffffffffffffffffffffffffffffffff1916908160001a905350600a856122809190613262565b94506121d8565b8093505050505b919050565b600073ffffffffffffffffffffffffffffffffffffffff168273ffffffffffffffffffffffffffffffffffffffff161415612303576040517f08c379a00000000000000000000000000000000000000000000000000000000081526004016122fa90612faa565b60405180910390fd5b61230c81611549565b1561234c576040517f08c379a000000000000000000000000000000000000000000000000000000000815260040161234390612e8a565b60405180910390fd5b61235860008383611d82565b6001600360008473ffffffffffffffffffffffffffffffffffffffff1673ffffffffffffffffffffffffffffffffffffffff16815260200190815260200160002060008282546123a8919061320c565b92505081905550816002600083815260200190815260200160002060006101000a81548173ffffffffffffffffffffffffffffffffffffffff021916908373ffffffffffffffffffffffffffffffffffffffff160217905550808273ffffffffffffffffffffffffffffffffffffffff16600073ffffffffffffffffffffffffffffffffffffffff167fddf252ad1be2c89b69c2b068fc378daa952ba7f163c4a11628f55a4df523b3ef60405160405180910390a461246960008383611e2d565b5050565b6000808273ffffffffffffffffffffffffffffffffffffffff163b119050919050565b82805461249c9061337d565b90600052602060002090601f0160209004810192826124be5760008555612505565b82601f106124d757805160ff1916838001178555612505565b82800160010185558215612505579182015b828111156125045782518255916020019190600101906124e9565b5b5090506125129190612556565b5090565b5080546125229061337d565b6000825580601f106125345750612553565b601f0160209004906000526020600020908101906125529190612556565b5b50565b5b8082111561256f576000816000905550600101612557565b5090565b600061258661258184613167565b613142565b90508281526020810184848401111561259e57600080fd5b6125a984828561333b565b509392505050565b60006125c46125bf84613198565b613142565b9050828152602081018484840111156125dc57600080fd5b6125e784828561333b565b509392505050565b6000813590506125fe81613a20565b92915050565b60008135905061261381613a37565b92915050565b60008135905061262881613a4e565b92915050565b60008151905061263d81613a4e565b92915050565b600082601f83011261265457600080fd5b8135612664848260208601612573565b91505092915050565b600082601f83011261267e57600080fd5b813561268e8482602086016125b1565b91505092915050565b6000813590506126a681613a65565b92915050565b6000602082840312156126be57600080fd5b60006126cc848285016125ef565b91505092915050565b600080604083850312156126e857600080fd5b60006126f6858286016125ef565b9250506020612707858286016125ef565b9150509250929050565b60008060006060848603121561272657600080fd5b6000612734868287016125ef565b9350506020612745868287016125ef565b925050604061275686828701612697565b9150509250925092565b6000806000806080858703121561277657600080fd5b6000612784878288016125ef565b9450506020612795878288016125ef565b93505060406127a687828801612697565b925050606085013567ffffffffffffffff8111156127c357600080fd5b6127cf87828801612643565b91505092959194509250565b600080604083850312156127ee57600080fd5b60006127fc858286016125ef565b925050602061280d85828601612604565b9150509250929050565b6000806040838503121561282a57600080fd5b6000612838858286016125ef565b925050602061284985828601612697565b9150509250929050565b60006020828403121561286557600080fd5b600061287384828501612619565b91505092915050565b60006020828403121561288e57600080fd5b600061289c8482850161262e565b91505092915050565b6000806000606084860312156128ba57600080fd5b600084013567ffffffffffffffff8111156128d457600080fd5b6128e08682870161266d565b935050602084013567ffffffffffffffff8111156128fd57600080fd5b6129098682870161266d565b925050604061291a868287016125ef565b9150509250925092565b60006020828403121561293657600080fd5b600061294484828501612697565b91505092915050565b6000806040838503121561296057600080fd5b600061296e85828601612697565b925050602061297f858286016125ef565b9150509250929050565b6000806040838503121561299c57600080fd5b60006129aa85828601612697565b925050602083013567ffffffffffffffff8111156129c757600080fd5b6129d38582860161266d565b9150509250929050565b600080604083850312156129f057600080fd5b60006129fe85828601612697565b9250506020612a0f85828601612697565b9150509250929050565b612a22816132c7565b82525050565b612a31816132d9565b82525050565b6000612a42826131c9565b612a4c81856131df565b9350612a5c81856020860161334a565b612a6581613516565b840191505092915050565b6000612a7b826131d4565b612a8581856131f0565b9350612a9581856020860161334a565b612a9e81613516565b840191505092915050565b6000612ab4826131d4565b612abe8185613201565b9350612ace81856020860161334a565b80840191505092915050565b6000612ae76032836131f0565b9150612af282613527565b604082019050919050565b6000612b0a6025836131f0565b9150612b1582613576565b604082019050919050565b6000612b2d601c836131f0565b9150612b38826135c5565b602082019050919050565b6000612b506024836131f0565b9150612b5b826135ee565b604082019050919050565b6000612b736019836131f0565b9150612b7e8261363d565b602082019050919050565b6000612b96602c836131f0565b9150612ba182613666565b604082019050919050565b6000612bb9600c836131f0565b9150612bc4826136b5565b602082019050919050565b6000612bdc6038836131f0565b9150612be7826136de565b604082019050919050565b6000612bff602a836131f0565b9150612c0a8261372d565b604082019050919050565b6000612c226029836131f0565b9150612c2d8261377c565b604082019050919050565b6000612c45602e836131f0565b9150612c50826137cb565b604082019050919050565b6000612c686020836131f0565b9150612c738261381a565b602082019050919050565b6000612c8b6031836131f0565b9150612c9682613843565b604082019050919050565b6000612cae602c836131f0565b9150612cb982613892565b604082019050919050565b6000612cd1602f836131f0565b9150612cdc826138e1565b604082019050919050565b6000612cf46018836131f0565b9150612cff82613930565b602082019050919050565b6000612d176021836131f0565b9150612d2282613959565b604082019050919050565b6000612d3a601c836131f0565b9150612d45826139a8565b602082019050919050565b6000612d5d6031836131f0565b9150612d68826139d1565b604082019050919050565b612d7c81613331565b82525050565b6000612d8e8285612aa9565b9150612d9a8284612aa9565b91508190509392505050565b6000602082019050612dbb6000830184612a19565b92915050565b6000608082019050612dd66000830187612a19565b612de36020830186612a19565b612df06040830185612d73565b8181036060830152612e028184612a37565b905095945050505050565b6000602082019050612e226000830184612a28565b92915050565b60006020820190508181036000830152612e428184612a70565b905092915050565b60006020820190508181036000830152612e6381612ada565b9050919050565b60006020820190508181036000830152612e8381612afd565b9050919050565b60006020820190508181036000830152612ea381612b20565b9050919050565b60006020820190508181036000830152612ec381612b43565b9050919050565b60006020820190508181036000830152612ee381612b66565b9050919050565b60006020820190508181036000830152612f0381612b89565b9050919050565b60006020820190508181036000830152612f2381612bac565b9050919050565b60006020820190508181036000830152612f4381612bcf565b9050919050565b60006020820190508181036000830152612f6381612bf2565b9050919050565b60006020820190508181036000830152612f8381612c15565b9050919050565b60006020820190508181036000830152612fa381612c38565b9050919050565b60006020820190508181036000830152612fc381612c5b565b9050919050565b60006020820190508181036000830152612fe381612c7e565b9050919050565b6000602082019050818103600083015261300381612ca1565b9050919050565b6000602082019050818103600083015261302381612cc4565b9050919050565b6000602082019050818103600083015261304381612ce7565b9050919050565b6000602082019050818103600083015261306381612d0a565b9050919050565b6000602082019050818103600083015261308381612d2d565b9050919050565b600060208201905081810360008301526130a381612d50565b9050919050565b60006020820190506130bf6000830184612d73565b92915050565b600060e0820190506130da600083018a612d73565b81810360208301526130ec8189612a70565b905081810360408301526131008188612a70565b905061310f6060830187612a19565b61311c6080830186612a19565b61312960a0830185612a19565b61313660c0830184612a28565b98975050505050505050565b600061314c61315d565b905061315882826133af565b919050565b6000604051905090565b600067ffffffffffffffff821115613182576131816134e7565b5b61318b82613516565b9050602081019050919050565b600067ffffffffffffffff8211156131b3576131b26134e7565b5b6131bc82613516565b9050602081019050919050565b600081519050919050565b600081519050919050565b600082825260208201905092915050565b600082825260208201905092915050565b600081905092915050565b600061321782613331565b915061322283613331565b9250827fffffffffffffffffffffffffffffffffffffffffffffffffffffffffffffffff038211156132575761325661345a565b5b828201905092915050565b600061326d82613331565b915061327883613331565b92508261328857613287613489565b5b828204905092915050565b600061329e82613331565b91506132a983613331565b9250828210156132bc576132bb61345a565b5b828203905092915050565b60006132d282613311565b9050919050565b60008115159050919050565b60007fffffffff0000000000000000000000000000000000000000000000000000000082169050919050565b600073ffffffffffffffffffffffffffffffffffffffff82169050919050565b6000819050919050565b82818337600083830152505050565b60005b8381101561336857808201518184015260208101905061334d565b83811115613377576000848401525b50505050565b6000600282049050600182168061339557607f821691505b602082108114156133a9576133a86134b8565b5b50919050565b6133b882613516565b810181811067ffffffffffffffff821117156133d7576133d66134e7565b5b80604052505050565b60006133eb82613331565b91507fffffffffffffffffffffffffffffffffffffffffffffffffffffffffffffffff82141561341e5761341d61345a565b5b600182019050919050565b600061343482613331565b915061343f83613331565b92508261344f5761344e613489565b5b828206905092915050565b7f4e487b7100000000000000000000000000000000000000000000000000000000600052601160045260246000fd5b7f4e487b7100000000000000000000000000000000000000000000000000000000600052601260045260246000fd5b7f4e487b7100000000000000000000000000000000000000000000000000000000600052602260045260246000fd5b7f4e487b7100000000000000000000000000000000000000000000000000000000600052604160045260246000fd5b6000601f19601f8301169050919050565b7f4552433732313a207472616e7366657220746f206e6f6e20455243373231526560008201527f63656976657220696d706c656d656e7465720000000000000000000000000000602082015250565b7f4552433732313a207472616e736665722066726f6d20696e636f72726563742060008201527f6f776e6572000000000000000000000000000000000000000000000000000000602082015250565b7f4552433732313a20746f6b656e20616c7265616479206d696e74656400000000600082015250565b7f4552433732313a207472616e7366657220746f20746865207a65726f2061646460008201527f7265737300000000000000000000000000000000000000000000000000000000602082015250565b7f4552433732313a20617070726f766520746f2063616c6c657200000000000000600082015250565b7f4552433732313a206f70657261746f7220717565727920666f72206e6f6e657860008201527f697374656e7420746f6b656e0000000000000000000000000000000000000000602082015250565b7f4e6f7420656c696769626c650000000000000000000000000000000000000000600082015250565b7f4552433732313a20617070726f76652063616c6c6572206973206e6f74206f7760008201527f6e6572206e6f7220617070726f76656420666f7220616c6c0000000000000000602082015250565b7f4552433732313a2062616c616e636520717565727920666f7220746865207a6560008201527f726f206164647265737300000000000000000000000000000000000000000000602082015250565b7f4552433732313a206f776e657220717565727920666f72206e6f6e657869737460008201527f656e7420746f6b656e0000000000000000000000000000000000000000000000602082015250565b7f45524337323155524953746f726167653a2055524920736574206f66206e6f6e60008201527f6578697374656e7420746f6b656e000000000000000000000000000000000000602082015250565b7f4552433732313a206d696e7420746f20746865207a65726f2061646472657373600082015250565b7f45524337323155524953746f726167653a2055524920717565727920666f722060008201527f6e6f6e6578697374656e7420746f6b656e000000000000000000000000000000602082015250565b7f4552433732313a20617070726f76656420717565727920666f72206e6f6e657860008201527f697374656e7420746f6b656e0000000000000000000000000000000000000000602082015250565b7f4552433732314d657461646174613a2055524920717565727920666f72206e6f60008201527f6e6578697374656e7420746f6b656e0000000000000000000000000000000000602082015250565b7f4e6f7420746865206f776e6572206f6620746865204e46540000000000000000600082015250565b7f4552433732313a20617070726f76616c20746f2063757272656e74206f776e6560008201527f7200000000000000000000000000000000000000000000000000000000000000602082015250565b7f596f752063616e74207472616e73666572207468697320746f6b656e00000000600082015250565b7f4552433732313a207472616e736665722063616c6c6572206973206e6f74206f60008201527f776e6572206e6f7220617070726f766564000000000000000000000000000000602082015250565b613a29816132c7565b8114613a3457600080fd5b50565b613a40816132d9565b8114613a4b57600080fd5b50565b613a57816132e5565b8114613a6257600080fd5b50565b613a6e81613331565b8114613a7957600080fd5b5056fea26469706673582212208ec9e9deb58cbc94492a479c40c402769516ad1db373c8ad7ca2049cb42d6df464736f6c63430008040033",
  "linkReferences": {},
  "deployedLinkReferences": {}
}